:020000040800F2
:10000000005000209D040008ED040008ED040008E5
:10001000ED040008ED040008ED04000800000000F5
:10002000000000000000000000000000ED040008D7
:10003000ED04000800000000ED04000813100008A3
:10004000ED040008ED040008ED040008ED040008CC
:10005000ED040008ED040008ED040008ED040008BC
:10006000ED040008ED040008ED040008ED040008AC
:10007000ED040008ED040008ED040008ED0400089C
:10008000ED040008ED040008ED0400080000000085
:10009000000000000000000000000000ED04000867
:1000A0009D1A0008191A0008B11A0008391A000828
:1000B0004D1A0008611A0008751A0008ED040008BE
:1000C000ED040008ED040008ED040008ED0400084C
:1000D000ED040008E1160008F91600080000000011
:1000E000ED040008ED040008ED0400080000000025
:1000F000000000000000000000000000ED04000807
:1001000000000000ED040008891A0008ED04000852
:1001100000000000000000000000000000000000DF
:10012000ED040008ED040008ED040008ED040008EB
:10013000ED040008000000000000000000000000C6
:10014000000000000000000000000000ED040008B6
:10015000ED040008ED040008ED0400081117000884
:10016000ED040008ED04000800000000000000009D
:10017000000000000000000000000000000000007F
:1001800000000000ED040008000000000000000076
:08019000ED040008ED04000875
:1001980010F8012B11F8013B012A28BF9A42F7D029
:1001A800D01A7047034613F8012B002AFBD1181AFE
:1001B8000138704753B94AB9002908BF00281CBF45
:1001C8004FF0FF314FF0FF3000F0E2B8ADF1080C0E
:1001D8006DE904CE03F04EFEDDF804E0DDE902230C
:1001E80004B0704700F1340191E838009C46A646F7
:1001F8004CF8045D90E8FF0FE54600BD90EC210B3C
:10020800704700BF80EC210B704700BF90EC200BBB
:10021800704700BF80EC200B704700BFD0EC200B6C
:10022800704700BFC0EC200B704700BFF0EC020124
:10023800F0EC0211F0EC0221F0EC0231F0EC02419A
:10024800F0EC0251F0EC0261F0EC0271F0EC02818A
:10025800F0EC0291F0EC02A1F0EC02B1F0EC02C17A
:10026800F0EC02D1F0EC02E1F0EC02F1704700BFD3
:10027800E0EC0201E0EC0211E0EC0221E0EC0231DA
:10028800E0EC0241E0EC0251E0EC0261E0EC0271CA
:10029800E0EC0281E0EC0291E0EC02A1E0EC02B1BA
:1002A800E0EC02C1E0EC02D1E0EC02E1E0EC02F1AA
:1002B800704700BFB0FC0181B0FC0191B0FC01A106
:1002C800B0FC01B1704700BFA0FC0181A0FC019106
:1002D800A0FC01A1A0FC01B1704700BFEC4600B52D
:1002E8002DE900502DE9FF1F4FF000032DE90C0008
:1002F80001A904F079F8DDF840E012B0704700BFBA
:10030800EC4600B52DE900502DE9FF1F4FF0000322
:100318002DE90C0001A904F0A3F8DDF840E012B0C3
:10032800704700BFEC4600B52DE900502DE9FF1FCE
:100338004FF000032DE90C0001A904F0B3F8DDF833
:1003480040E012B0704700BFEC4600B52DE9005000
:100358002DE9FF1F4FF000032DE90C0001AB04F05D
:1003680077F8DDF840E012B0704700BFEC4600B502
:100378002DE900502DE9FF1F4FF000032DE90C0077
:1003880001AA04F0E5F8DDF840E012B0704700BFBC
:10039800704700BF10B5054C237833B9044B13B12F
:1003A8000448AFF300800123237010BD940000209F
:1003B80000000000BC4E000808B5034B1BB1034900
:1003C8000348AFF3008008BD00000000980000203B
:1003D800BC4E0008012800D070474FF6FF739942C1
:1003E800FAD110B509220A21064800F02FF9064C67
:1003F8000649204600F015FC054A0649204602F049
:100408005AFE10BDBC000020B0000020D44E0008E9
:10041800000000209B0B000808B501211F2000F0F8
:1004280029FC06224FF41651014800F0B5FA08BD20
:10043800BC00002010B501211F2000F08FFC0D4CDE
:100448000D49204600F03BFB4FF47A7000F0C8FCE1
:1004580000211F2000F082FC0849204600F028FBFC
:100468004FF47A7000F0BCFC0549204600F042FBCE
:1004780010BD00BFBC000020E04E0008B000002006
:10048800F84E000808B54FF6FF710120FFF7A2FFEC
:1004980008BD0000DFF834D00D480E490E4A00238D
:1004A80002E0D458C4500433C4188C42F9D30B4A20
:1004B8000B4C002301E013600432A242FBD300F08E
:1004C80035FF03F003FB00F0C6FB70470050002027
:1004D8000000002094000020AC590008940000207F
:1004E8003C030020FEE7B0F8FC309BB24033B0F884
:1004F800F800181A00F03F007047B0F8FC309BB2C3
:10050800B0F8F820934203D0D0F8F030985C7047E8
:100518004FF0FF30704790F8FA30B0F8FE00C0B2E4
:10052800834202D2C01A01387047C3F13F0318440E
:100538007047037C33B1B0F8FA20B0F8FE309BB2B4
:100548009A42F8D1704700B583B08DF80710036858
:100558005B6801220DF10701984703B05DF804FBC1
:1005680010B582B004460DF1070100F0E3FF98B919
:10057800B4F868309BB2013303F03F03B4F8642049
:10058800934209D0E16DB4F8682092B29DF8070053
:1005980088549BB2A4F8683002B010BDB0F86A3035
:1005A800C26E12FA83F303F03F03A0F86A30B0F882
:1005B8006620B0F86A309BB29A4201D10020704799
:1005C80000B583B002F14003B0F86A2092B29B1ADA
:1005D8005A4203F03F0302F03F0258BF53420093D0
:1005E800B0F86A2092B2C2F14002019293420AD84E
:1005F8006B461A68C266054900F0DAFF4FF0FF3013
:1006080003B05DF804FB01ABF3E700BFA5050008E4
:10061800914215D0C0F8E810C0F8E42000F11103A9
:10062800C0F8F0300023A0F8FC30A0F8F83000F152
:100638005102C0F8F420A0F8FA30A0F8FE30704754
:100648004FF0FF33C0F8E830E6E7000010B5044685
:10065800284B036000234360274B03604FF47A73F1
:100668008360264B0360CBB2232B13D8244850F861
:10067800233001F4E0611943D3B2232B22D8204858
:1006880050F8233002F4E0621A432046FFF7C0FF17
:10069800204610BD01F0C000C02802D04FF0FF3145
:1006A800EAE7C92B0BD801F03F00164B53F820009E
:1006B800134B53F8203001F4E0611943DCE74FF0A5
:1006C800FF31D9E702F0C000C02802D04FF0FF3256
:1006D800DBE7C92B0BD802F03F000A4B53F8200088
:1006E800074B53F8203002F4E0621A43CDE74FF08D
:1006F800FF32CAE7B04F0008DC4F0008704F00080F
:100708005851000830510008CBB2232B08D8104AA2
:1007180052F8233001F4E0611943C0F8E81070473B
:1007280001F0C002C02A02D04FF0FF31F5E7C92B13
:100738000BD801F03F02074B53F82220044B53F823
:10074800223001F4E0611943E7E74FF0FF31E4E7B5
:100758005851000830510008CBB2232B08D8104A52
:1007680052F8233001F4E0611943C0F8E4107047EF
:1007780001F0C002C02A02D04FF0FF31F5E7C92BC3
:100788000BD801F03F02074B53F82220044B53F8D3
:10079800223001F4E0611943E7E74FF0FF31E4E765
:1007A800585100083051000870B5044616461B4BD6
:1007B8000360002343601A4B03604FF47A7383602D
:1007C800184B03604FF0FF33C0F8E830164B9842DF
:1007D80017D00D461549284600F096FDC4F8E800E4
:1007E8001349284600F090FDC4F8E400012E10D00B
:1007F800D4F8E420D4F8E8102046FFF709FF204693
:1008080070BD0A21FFF780FF09212046FFF7A4FFEA
:10081800ECE74FF0FF33C4F8E830E9E7B04F0008E1
:10082800DC4F0008704F0008C8010020A4530008DE
:10083800EC530008012800D0704708B54FF6FF7345
:10084800994200D008BD002202490348FFF7ACFFD7
:10085800F8E700BF00100140C8010020D0F8E80008
:10086800B0F1FF3F14BF0020012070472DE9F0418F
:1008780082B004460F46904603689B6898470190EB
:10088800B4F8FA30C3F140030093012323742046DF
:10089800FFF7E4FF10B194F804313BB923689B6873
:1008A800204698470028F9D046461EE0002384F8E1
:1008B800043104F1940000F099FEEFE7019A9342A5
:1008C80037D301AB1D6823685B682A463946204642
:1008D8009847761B2F4423689B68204698470190C9
:1008E800B4F8FA30C3F140030093009BB342E5D358
:1008F800019AB242E2D3B4F8FA309A19402A1AD8C7
:10090800D4F8F40032463946184403F013F9354652
:10091800B4F8FA301E4406F03F06A4F8FA6004F171
:100928009406304600F0F4FDA8B1404602B0BDE898
:10093800F0816B46C6E7C3F14005D4F8F4002A46B7
:100948003946184403F0F6F8721B7919D4F8F40004
:1009580003F0F0F8DCE7C4F800512A4602493046B3
:1009680000F026FEE1E700BFA505000810B5044623
:10097800FFF774FF30B12368DB682046984794F886
:10098800043103B110BD012384F8043104F194004B
:1009980000F03EFEF6E700002DE9F04383B0044680
:1009A8000E46C0F8081180F8052102F00703042B51
:1009B80011D0062B11D0022B0BD0002502F03003EA
:1009C800302B0CD012F0200F1BD001354FF480686B
:1009D80008E00625F2E70725F0E70825EEE70135E8
:1009E8004FF4C06812F0080F0ED04FF40059082DCC
:1009F8000DD0092D0DD040F2A111114800F094FC42
:100A080009E04FF00008EDE74FF00009EFE7002597
:100A180001E04FF4805504F19407CDF80090434667
:100A28002A463146384600F0A5FC2046FFF79EFFCF
:100A38000449384600F09CFD03B0BDE8F08300BFD0
:100A4800084F00086905000810B50446FFF78EFF37
:100A5800B4F8FC2092B2B4F8F8309A4208D0D4F82E
:100A6800F020D05C013303F03F03A4F8F83010BD48
:100A78004FF0FF30FBE708B54FF6FF710120FFF795
:100A8800D9FE08BD002070477047F8B505460C46EA
:100A9800002601E001363A46571E3AB12B681B681A
:100AA80014F8011B284698470028F3D13046F8BDB2
:100AB80008B503685B688A680968984708BD61B12A
:100AC80070B504460D4603685E680846FFF76AFB82
:100AD800024629462046B04770BD002070470000F6
:100AE80008B503685B6802220149984708BD00BF42
:100AF800944F000838B50546FFF7E1FF044628463D
:100B0800FFF7EEFF204438BD10B5044600F064F945
:100B1800E06023685B6920469847002808DA00F0FF
:100B28005BF9E368C01AA3689842F2D34FF0FF302C
:100B380010BDF8B507460C461646002504E02146C8
:100B480001F8010B01350C46B54204D23846FFF7CF
:100B5800DBFF0028F3DA2846F8BD2DE9F041984676
:100B68009BB106460F461446002504E0224602F8CB
:100B7800010B01351446454508D23046FFF7C4FF3E
:100B8800002803DB8742F1D100E01D462846BDE876
:100B9800F08110B50446006802F0C4FF204610BD7D
:100BA80010B50446006808B102F0BCFF00232360BA
:100BB800A360636010BD38B504460D460131006876
:100BC80003F0AEF818B120606560012038BD002040
:100BD800FCE710B50446036813B143688B420BD297
:100BE8002046FFF7E8FF00B910BDA36813B92368D2
:100BF80000221A700120F7E70120F5E770B50446D6
:100C08000E4615461146FFF7E4FF30B1A5603146A0
:100C1800206803F0E1F8204670BD2046FFF7C0FFCA
:100C2800F9E738B50446002303604360836041B1A7
:100C38000D460846FFF7B6FA024629462046FFF752
:100C4800DDFF204638BDFEE708B5032000F0D8F8E0
:100C580000F00BF808BD08B5AFF30080FFF7DCFB28
:100C6800FFF7E8FB00F07CFFFAE708B500F0F2F9BF
:100C780008BD0000F8B50D46C3B2232B1AD8324A76
:100C880052F8234000F4E0600443B4F1FF3F15D06C
:100C9800C4F303162D4B53F8263004F00F07FB401E
:100CA80013F0010F19D1052D49D8DFE805F02A3EC8
:100CB8002F34394300F0C002C02A00D0F8BDC92B38
:100CC800FCD800F03F02224B53F822201E4B53F869
:100CD800224000F4E0600443D7E71E49204600F0B4
:100CE800C5F950B9194951F82630012202FA07F717
:100CF80023EA070341F82630D5E7204600F010FD27
:100D0800F0E70021204600F0C3F9D7E7102120467C
:100D180000F0BEF9D2E72021204600F0B9F9CDE76E
:100D28000321204600F0B4F9C8E70121204600F06D
:100D3800AFF9C3E70921204600F0AAF9BEE7492127
:100D4800054800F0F1FAB9E75851000800030020FF
:100D580030510008E851000800500008C3B2232BA6
:100D680014D8194A52F8233000F4E0601843C0F34D
:100D78000313052B22D8154A52F8232000F00F0040
:100D8800134B53F82030D9B19361704700F0C0027B
:100D9800C02A02D04FF0FF30E9E7C92B0BD800F08A
:100DA8003F020C4B53F82220074B53F8223000F433
:100DB800E0601843DBE74FF0FF30D8E70022DDE7BB
:100DC8001B049361704700BF5851000804000020BD
:100DD800885000083051000808B500F011F908BD26
:100DE80000B9704738B5044600F00AF9054600F026
:100DF800CFFE00F005F9401BA042F8D338BD000033
:100E0800074AD36823F4E0631B041B0C000200F4B8
:100E1800E060034343F0BF6343F40033D36070479B
:100E280000ED00E000B5194BDB68C3F30223C3F102
:100E3800070CBCF1040F28BF4FF0040C03F1040E9B
:100E4800BEF1060F18D9033B4FF0FF3E0EFA0CFC1B
:100E580021EA0C0199400EFA03F322EA030319432D
:100E680000280BDB0901C9B200F1604000F56140C0
:100E780080F800135DF804FB0023E5E700F00F009D
:100E88000901C9B2024B1954F4E700BF00ED00E0B4
:100E980014ED00E0002807DB00F01F0240090123E1
:100EA8009340024A42F82030704700BF00E100E05A
:100EB80000280CDB00F01F0240090123934020307A
:100EC800034A42F82030BFF34F8FBFF36F8F70474C
:100ED80000E100E00138B0F1807F0BD24FF0E02351
:100EE8005861054AF02182F82310002098610722F2
:100EF8001A6170470120704700ED00E0002808DB08
:100F080000F01F024009012393406030014A42F873
:100F18002030704700E100E0704708B5FFF7FCFF9C
:100F280008BD000086B0052859D8DFE800F0031294
:100F3800202E3C4A002300932A4B1A6B42F00102F0
:100F48001A631B6B03F001030093009B264806B04D
:100F5800704700230193234B1A6B42F002021A6375
:100F68001B6B03F002030193019B2048EFE700236A
:100F780002931C4B1A6B42F004021A631B6B03F0BA
:100F880004030293029B1A48E1E700230393154BDD
:100F98001A6B42F008021A631B6B03F008030393F1
:100FA800039B1448D3E7002304930E4B1A6B42F0BB
:100FB80010021A631B6B03F010030493049B0E4882
:100FC800C5E700230593074B1A6B42F080021A63AA
:100FD8001B6B03F080030593059B0848B7E70020C7
:100FE800B5E700BF0038024000000240000402409C
:100FF80000080240000C024000100240001C0240A1
:1010080008B500F013FE08BD704708B500F002FEF1
:10101800FFF783FFFFF7F8FF08BD704782B0002194
:1010280000910B4B1A6C42F080521A641A6C02F051
:1010380080520092009A01915A6C42F480425A649C
:101048005B6C03F480430193019B02B0704700BFBF
:101058000038024008B5FFF7E1FF01F059FE00F043
:10106800BFFDFFF7DAFF00F08FFB08BDB0F1FF3FCF
:1010780007D00B68B3F1FF3F05D0834205D00C3190
:10108800F7E70020704700207047012070470000F4
:101098002DE9F84380460D4601F00707C1F30629FC
:1010A800C0F3031600F00F02784B53F82240B0F15A
:1010B800FF3F20D03046FFF735FF0646826894FA96
:1010C800A4F3EBB1B3FA83F35B00032101FA03F352
:1010D80022EA030294FAA4F3A3B1B3FA83F35B0000
:1010E800032101FA03F31343B3608F424ED8DFE8BC
:1010F80007F053530B539E21654800F015F9D9E7C3
:101108002023E1E72023EAE708F00F025F4B53F8BA
:10111800223018F0080F1DD0716A1B0A93FAA3F247
:10112800A2B1B2FA82F292000F2000FA02F221EA8A
:10113800020293FAA3F35BB1B3FA83F39B0009FAB3
:1011480003F942EA09027262394626E02022EAE7F8
:101158002023F3E7316A93FAA3F29AB1B2FA82F242
:1011680092000F2000FA02F221EA020293FAA3F396
:1011780053B1B3FA83F39B0009FA03F942EA09026F
:101188003262E1E72022EBE72023F4E7FB21404825
:1011980000F0CAF8002100E03946336894FAA4F256
:1011A8004AB3B2FA82F25200032000FA02F223EAAA
:1011B800020294FAA4F303B3B3FA83F35B0001FACF
:1011C80003F313433360013F012F18D9C5F3011509
:1011D800012D20D0022D3BD0F36894FAA4F4002C02
:1011E80052D0B4FA84F46400032202FA04F423EA25
:1011F8000404F46026E02022D5E72023DEE715F07A
:10120800080F03D0736823437360DFE7736823EA2A
:1012180004037360DAE7F26894FAA4F3A3B1B3FAAB
:1012280083F35B00032101FA03F322EA030394FA30
:10123800A4F45CB1B4FA84F46400012202FA04F460
:101248001C43F460BDE8F8832023EAE72024F3E791
:10125800F26894FAA4F39BB1B3FA83F35B00032119
:1012680001FA03F322EA030394FAA4F454B1B4FA9A
:1012780084F46400022202FA04F41C43F460E1E7F7
:101288002023EBE72024F4E72024ACE7885000086B
:1012980040500008B0F1FF3F08D008B50B68B3F123
:1012A800FF3F08D0834202D00C31F7E770478968C6
:1012B800FFF7EEFE04E040F22911024800F034F88E
:1012C80008BD00BF4050000800E00C310B68B3F1C6
:1012D800FF3F03D08342F8D1486870470020704729
:1012E800B0F1FF3F03D008B5FFF7EEFF08BD0020BF
:1012F800704700E00C314B681BB18342FAD1086893
:1013080070474FF0FF30704718B108B5FFF7F1FF8D
:1013180008BD4FF0FF307047884204D010B111B1BA
:101328000020704708467047FEE700000D4AD2F8D3
:10133800883043F47003C2F888300B4B1A6842F0C7
:1013480001021A60002199601A6822F0847222F45E
:1013580080321A60054A5A601A6822F480221A609C
:10136800D960704700ED00E00038024010300024DA
:1013780004387047002800F0AB802DE9F04784B0AE
:10138800884617461E46044600F104095149006D77
:10139800FFF7A6FF82465049606DFFF7A1FF05469B
:1013A800BAF1000F3AD0636DB3F1FF3F01D00028C6
:1013B80034D029465046FFF7AFFF206000282DD0D3
:1013C800464B98422DD0464B984245D0454B9842C3
:1013D8005ED04049206DFFF75DFF1DB13E49606D4D
:1013E800FFF758FF94F859203F4B43F822902368A1
:1013F8006360C4F80880E7600C9B236166610C2376
:10140800A3610022E2612262012194F95800FFF7EA
:1014180009FD002D58D0484601F0B3F904B0BDE8E5
:10142800F08703F594335A6A42F010025A625A6AF6
:1014380022F010025A62002101915A6C42F0100207
:101448005A645B6C03F010030193019B84F85910F4
:10145800252384F85830BCE703F5FA331A6A42F4B6
:1014680000321A621A6A22F400321A6200220292C8
:101478001A6C42F400321A641B6C03F400330293B2
:10148800029B012384F85930262384F85830A0E7BA
:1014980003F592335A6A42F020025A625A6A22F0DD
:1014A80020025A62002203925A6C42F020025A64C7
:1014B8005B6C03F020030393039B022384F85930E9
:1014C800472384F8583084E7484601F089F9A5E7AE
:1014D800704700BFEC530008A453000800100140F7
:1014E8000044004000140140D402002008B590F8E0
:1014F8005920064B53F8220001F0CCFB00F02200E3
:10150800222814BF0020012008BD00BFD4020020FB
:1015180008B590F85920064B53F8220001F0BAFBA1
:1015280000F02100212814BF0020012008BD00BFC1
:10153800D4020020A0B138B50D460446FFF7D6FF07
:1015480088B994F85A302B7094F85900012204F1A4
:101558005A01064B53F8200001F0BDFB002038BDAE
:101568004FF0FF3070474FF0FF30F8E7D40200200B
:10157800D0B138B50D460446FFF7B8FF00B138BD05
:10158800A56494F95800FFF793FC94F859000122D8
:1015980004F15A01054B53F8200001F09CFB94F923
:1015A8005800FFF777FCEAE7704700BFD402002035
:1015B800C8B138B515460446C16490F95800FFF71C
:1015C80077FC94F85900236EB4F86A10AAB213FA9B
:1015D80081F1054B53F8200001F037F994F95800D0
:1015E800FFF758FC38BD7047D402002068B108B531
:1015F800426DB2F1FF3F00D008BD90F85920034B6F
:1016080053F8220001F010FBF6E77047D4020020DF
:1016180068B108B5426DB2F1FF3F00D008BD90F83F
:101628005920034B53F8220001F019FBF6E77047E5
:10163800D402002008B5FFF79BFE08B1826C9047E2
:1016480008BD08B5FFF794FE08B1C26C904708BD05
:1016580030B585B0044603681A6812F0010F10D03F
:10166800002200921A6800925B680093009B204653
:10167800FFF77EFE054610B1FFF738FF28B305B027
:1016880030BD1A6812F0020F07D0002201921A68C2
:1016980001925B680193019BE9E71A6812F0040F55
:1016A80007D0002202921A6802925B680293029B9A
:1016B800DDE71A6812F0080FD9D0002203921A68E1
:1016C80003925B680393039BD1E7012205F15A015A
:1016D800204601F000FBD2E708B52520FFF70EFCF5
:1016E800024B186801F060F908BD00BFD402002061
:1016F80008B52620FFF702FC024B586808B101F034
:1017080053F908BDD402002008B54720FFF7F6FBBF
:10171800024B986801F048F908BD00BFD4020020C8
:1017280070B505461649FFF7DBFD00F091F8044651
:10173800144B53F8203063B1124B53F824301C6813
:1017480034B1204600F0BEF8B021204600F01CFA63
:1017580070BD0B492846FFF7C3FD0646B02000F0D0
:101768000FFA0546314600F033F9064B53F824309A
:101778001D60E1E7B021284600F006FA01F014FDEB
:10178800E8510008E002002000B595B030220021A1
:1017980008A802F0DDF90023039304930593069348
:1017A80007930193224A116C41F080511164126C25
:1017B80002F080520192019A02931E4B1A6842F479
:1017C80040421A601B6803F440430293029B0123C2
:1017D80008934FF48033099302230E934FF4800249
:1017E8000F9219221092C02211921293042313937C
:1017F80008A800F07FFA88B90F2303930223049303
:10180800002305934FF4805206920793032103A8FF
:1018180000F0BEFC38B915B05DF804FB6621064837
:10182800FFF782FDE8E772210348FFF77DFDF2E745
:101838000038024000700040E050000810B504462F
:10184800836813B1032201469847204610BD000063
:101858000346154A904217D04FF6FF70B3F1804FF8
:1018680014D0124A934213D0114A934212D0114A0B
:10187800934211D0104A934210D0104A93420FD08D
:101888000F4A93420ED070470020E7E70120E8E7AF
:101898000220E9E70320EAE70420EBE70520ECE76C
:1018A8000620EDE70720EEE70000014000040040B5
:1018B80000080040000C0040004001400044014086
:1018C8000048014070B50546064656F8100FFFF768
:1018D800BFFF0446304601F0D9FA00230A4A42F80D
:1018E8002430EB6015F160060CD005F1B004A64277
:1018F80008D0103CA368002BF9D0032221462046CB
:101908009847F4E7284670BDE0020020F8B5044681
:101918000D460846FFF79CFF06464FF6FF739842B0
:1019280023D023691BB152212748FFF7FDFC04F19E
:101938000C03264A42F826302561002584F82C50ED
:1019480025636563A563E56325646564A56484F818
:101958004C5084F84D50E4600E23A365E56504F10E
:101968001007384601F0F6F905E04D211648FFF753
:10197800DBFCD6E70135042D0DDCAE1D04EB0616A5
:10198800B368002BF6D0032231463046984700232F
:10199800B360F360EEE70023032B06DC0022E25479
:1019A80004EB43018A800133F6E7002363614FF6B5
:1019B800FF72E261A361236263628023A3623846F7
:1019C80000F0CAFDF8BD00BF34540008E002002052
:1019D80070B5054600F160063246042303E0002492
:1019E80094601032013B002BF9DA00232B61284662
:1019F800FFF78CFF0AE03EB1B035B54204D0103D88
:101A08002846FFF71BFFF8E701F0CEFB284670BD1C
:101A180008B5064B186810B1043000F091FC034B70
:101A2800986910B1043000F08BFC08BDE00200207A
:101A380008B5034B186810B1043000F081FC08BDEC
:101A4800E002002008B5034B586810B1043000F0DC
:101A580077FC08BDE002002008B5034B986810B178
:101A6800043000F06DFC08BDE002002008B5034B0F
:101A7800D86810B1043000F063FC08BDE002002013
:101A880008B5034B186910B1043000F059FC08BDC3
:101A9800E002002008B5034B586910B1043000F08B
:101AA8004FFC08BDE002002008B5034BD86910B10F
:101AB800043000F045FC08BDE002002008B583684A
:101AC80013B1C368984708BD01F062FF10B504461A
:101AD80048B1204601F03CF90068836E13B16030CC
:101AE800FFF7ECFF10BD40F25A410248FFF71CFC1B
:101AF800EFE700BF3454000808B5FFF7E7FF08BD5B
:101B080038B5054648B12B7F013B072B19D8DFE8CC
:101B180003F00A1B180C1818181940F26D410B48ED
:101B2800FFF702FCEFE7012400E00324284601F058
:101B38000FF90068A31D00EB031083680BB1FFF7D2
:101B4800BDFF38BD0424F1E70224EFE73454000850
:101B580008B5FFF7D5FF08BD08B5FFF7D1FF08BDE9
:101B680008B5054B1BB10548FEF7BDFC00B908BD1B
:101B7800AFF30080FBE700BF00000000C8010020B1
:101B880008B501F0C7FF08BD08B501F0CBFF08BDD7
:101B98007047704710B504460E4B18784FF47A73A7
:101BA800B3FBF0F30C4A1068B0FBF3F0FFF792F9BF
:101BB80068B90F2C01D901200AE0002221464FF014
:101BC800FF30FFF72FF9054B1C60002000E00120D3
:101BD80010BD00BF200000201C00002024000020B1
:101BE80008B50B4B1A6842F400721A601A6842F47E
:101BF80080621A601A6842F480721A600320FFF744
:101C0800FFF80020FFF7C6FFFFF7C3FF002008BD5D
:101C1800003C0240034A1168034B1B780B441360D5
:101C2800704700BF1803002020000020014B1868EF
:101C3800704700BF1803002070B50446866DFFF793
:101C4800F5FF94F83530DBB2022B06D080236365AC
:101C5800002384F83430012070BD054622681368DB
:101C680023F0160313602268536923F0800353613D
:101C7800236CE3B12268136823F008031360226819
:101C8800136823F00103136023681B6813F0010F26
:101C980011D0FFF7CBFF431B052BF5D92023636534
:101CA800032084F83500002384F83430D4E7A36C8B
:101CB800002BDFD1E3E7E26D3F239340B3600123BC
:101CC80084F83530002084F83400C5E790F83530C2
:101CD800DBB2022B03D08023436501207047052324
:101CE80080F835300268136823F001031360002080
:101CF80070470000002800F0E08170B582B004460B
:101D0800036813F0010F3BD09F4B9B6803F00C0353
:101D1800042B2CD09C4B9B6803F00C03082B21D080
:101D28006368B3F5803F4FD0B3F5A02F52D0964BE0
:101D38001A6822F480321A601A6822F480221A6023
:101D48006368002B50D0FFF771FF05468E4B1B6868
:101D580013F4003F14D1FFF769FF401B6428F5D93D
:101D68000320B1E1884B5B6813F4800FD8D0864B11
:101D78001B6813F4003F03D06368002B00F09F81B9
:101D8800236813F0020F54D07F4B9B6813F00C0F9D
:101D98003ED07D4B9B6803F00C03082B33D0E368DF
:101DA800002B68D0794B01221A60FFF73FFF0546E8
:101DB800754B1B6813F0020F54D1FFF737FF401B18
:101DC8000228F5D903207FE16F4A136843F4803372
:101DD8001360B5E76C4B1A6842F480221A601A68DF
:101DE80042F480321A60ABE7FFF720FF0546664BE6
:101DF8001B6813F4003FC3D0FFF718FF401B64288B
:101E0800F5D9032060E1604B5B6813F4800FC6D1FD
:101E18005D4B1B6813F0020F03D0E368012B40F001
:101E28005081594A136823F0F803216943EAC10332
:101E38001360236813F0080F42D063696BB3534BE8
:101E48000122C3F8802EFFF7F1FE05464E4B5B6F6B
:101E580013F0020F34D1FFF7E9FE401B0228F5D931
:101E6800032031E1484A136823F0F803216943EA63
:101E7800C1031360DDE7454B00221A60FFF7D6FE69
:101E88000546414B1B6813F0020FD2D0FFF7CEFE78
:101E9800401B0228F5D9032016E13C4B0022C3F869
:101EA800802EFFF7C3FE0546374B5B6F13F0020F1A
:101EB80006D0FFF7BBFE401B0228F5D9032003E13B
:101EC800236813F0040F77D02F4B1B6C13F0805F3F
:101ED80033D1002301932C4B1A6C42F080521A64C0
:101EE8001B6C03F080530193019B0125284B1B6851
:101EF80013F4807F23D0A368012B34D0052B38D06E
:101F0800214B1A6F22F001021A671A6F22F004029D
:101F18001A67A368002B3DD0FFF788FE06461A4BC8
:101F28001B6F13F0020F46D1FFF780FE801B41F2B2
:101F380088339842F3D90320C6E00025D6E7144A2F
:101F4800136843F480731360FFF770FE0646104B66
:101F58001B6813F4807FCED1FFF768FE801B022830
:101F6800F5D90320B0E0084A136F43F00103136763
:101F7800CFE7054B1A6F42F004021A671A6F42F056
:101F880001021A67C5E700BF003802400000474257
:101F980000700040FFF74AFE0646524B1B6F13F0D5
:101FA800020F08D0FFF742FE801B41F288339842A7
:101FB800F3D9032088E0EDB9A369002B00F08380F2
:101FC800484A926802F00C02082A51D0022B17D016
:101FD800454B00221A66FFF729FE0446414B1B6851
:101FE80013F0007F42D0FFF721FE001B0228F5D92D
:101FF800032069E03B4A136C23F080531364DBE74A
:10200800394B00221A66FFF711FE0546354B1B684F
:1020180013F0007F06D0FFF709FE401B0228F5D910
:10202800032051E0E369226A1343626A43EA821398
:10203800A26A5208013A43EA0243E26A43EA0263A7
:10204800284A5360284B01221A66FFF7EFFD044621
:10205800244B1B6813F0007F06D1FFF7E7FD001B38
:102068000228F5D903202FE000202DE000202BE0E6
:10207800012B2BD01B4B5B6803F48001E269914272
:1020880026D103F03F02216A8A4223D1616A47F6CA
:10209800C0721A40B2EB811F1ED103F44031A26A0C
:1020A8005208013AB1EB024F18D103F07063E26AAB
:1020B800B3EB026F14D1002006E001207047012025
:1020C80002E0012000E0002002B070BD0120FBE723
:1020D8000120F9E70120F7E70120F5E70120F3E700
:1020E8000120F1E7003802400000474208B5254BBF
:1020F8009B6803F00C03042B3FD0082B3FD1214BE6
:102108005A6802F03F025B6813F4800F12D01D4B2F
:102118005968C1F388111C480023A1FB0001FEF790
:1021280049F8184B5B68C3F3014301335B00B0FB0C
:10213800F3F025E0134B5968C1F3881C4FEA4C11A2
:10214800B1EB0C006EEB0E0E4FEA8E1343EA906370
:102158008101091A63EB0E03DB0043EA5173C900DE
:1021680011EB0C0C43F10003990200234FEA8C2079
:1021780041EA9C51FEF71EF8D3E7034800E0034804
:1021880008BD00BF0038024040787D010024F400FB
:10219800002800F09B8070B50D4604464F4B1B6825
:1021A80003F007038B4208D2CBB24C4A1370136872
:1021B80003F007038B4240F08B80236813F0020F73
:1021C80017D013F0040F04D0454A936843F4E05342
:1021D8009360236813F0080F04D0414A936843F4CE
:1021E800604393603E4A936823F0F003A1680B4371
:1021F8009360236813F0010F32D06368012B21D05C
:102208009A1E012A25D9364A126812F0020F61D0A7
:1022180033498A6822F0030213438B60FFF706FDF7
:1022280006462F4B9B6803F00C036268B3EB820FE2
:1022380016D0FFF7FBFC801B41F288339842F0D997
:10224800032042E0264A126812F4003FE0D1012040
:102258003BE0234A126812F0007FD9D1012034E014
:102268001E4B1B6803F00703AB4207D9EAB21B4BAE
:102278001A701B6803F00703AB422DD1236813F0D3
:10228800040F06D0164A936823F4E053E1680B4321
:102298009360236813F0080F07D0114A936823F45A
:1022A8006043216943EAC1039360FFF71FFF0C4BAA
:1022B8009B68C3F303130B4AD35CD8400A4B1860DE
:1022C8000A4B1868FFF766FC002070BD01207047B4
:1022D8000120FAE70120F8E70120F6E7003C024078
:1022E80000380240C85000081C00002024000020CC
:1022F800014B1868704700BF1C00002008B5FFF7A5
:10230800F7FF044B9B68C3F38223034AD35CD8408E
:1023180008BD00BF00380240D850000808B5FFF7D4
:10232800E7FF044B9B68C3F34233034AD35CD840AE
:1023380008BD00BF00380240D850000870477047F9
:1023480010B5044603681A6912F0020F11D0DA6852
:1023580012F0020F0DD06FF002021A610123037709
:1023680003689B6913F0030F70D0FFF7F1FB00239C
:10237800237723681A6912F0040F12D0DA6812F072
:10238800040F0ED06FF004021A610223237723682A
:102398009B6913F4407F5FD02046FFF7D9FB0023E9
:1023A800237723681A6912F0080F12D0DA6812F03E
:1023B800080F0ED06FF008021A61042323772368F0
:1023C800DB6913F0030F4ED02046FFF7C1FB002353
:1023D800237723681A6912F0100F12D0DA6812F006
:1023E800100F0ED06FF010021A61082323772368AC
:1023F800DB6913F4407F3DD02046FFF7A9FB00239B
:10240800237723681A6912F0010F03D0DA6812F0F3
:10241800010F36D123681A6912F0800F03D0DA68E9
:1024280012F0800F34D123681A6912F0400F03D0DC
:10243800DA6812F0400F32D123681A6912F0200FBF
:1024480003D0DA6812F0200F30D110BDFFF784FBFB
:102458002046FFF773FF8AE72046FFF77DFB2046FB
:10246800FFF76CFF9BE72046FFF776FB2046FFF758
:1024780065FFACE72046FFF76FFB2046FFF75EFFDE
:10248800BDE76FF001021A612046FFF735FBC1E78F
:102498006FF080021A61204600F08BF8C3E76FF0F6
:1024A80040021A612046FFF74AFFC5E76FF0200295
:1024B8001A61204600F07CF8C7E700000368254A47
:1024C80090420ED0B0F1804F0BD0A2F57C429042E2
:1024D80007D002F58062904203D002F580629042F4
:1024E80003D123F070034A6813431A4A90421AD062
:1024F800B0F1804F17D0A2F57C42904213D002F57C
:10250800806290420FD002F5806290420BD002F5B3
:102518009A32904207D002F58062904203D002F5C9
:102528008062904203D123F44073CA68134323F0B6
:1025380080034A69134303608B68C3620B68836234
:10254800044B984202D00123436170470B6903632F
:10255800F9E700BF0000014040B310B5044690F809
:102568003D30F3B1022384F83D30214651F8040B85
:10257800FFF7A4FF012384F8463084F83E3084F83E
:102588003F3084F8403084F8413084F8423084F891
:10259800433084F8443084F8453084F83D300020D6
:1025A80010BD80F83C3000F05BFDDBE70120704790
:1025B80070477047026802F10C0353E8003F23F4A8
:1025C80090730C3242E800310029F3D1026802F11D
:1025D800140353E8003F23F00103143242E80031AA
:1025E8000029F3D1036B012B05D0202380F83E305E
:1025F800002303637047026802F10C0353E8003FAD
:1026080023F010030C3242E800310029F3D1ECE743
:1026180090F83D30DBB2212B01D00220704783684F
:10262800B3F5805F17D0036A5A1C02621A780368F0
:102638005A60C38C9BB2013B9BB2C3844BB90268FE
:10264800D36823F08003D3600268D36843F0400363
:10265800D360002070470369002BE4D1036A1B880C
:102668000268C3F308035360036A02330362E0E7B6
:1026780038B504460268136923F44053C1680B4314
:10268800136183680269134342691343C2691A4399
:102698000168CB6823F4164323F00C031343CB6083
:1026A8000268536923F4407381690B4353610368DB
:1026B800314A934206D002F58062934202D0FFF776
:1026C8001DFE01E0FFF72AFEE369B3F5004F29D0AC
:1026D8000021031849411B1841F10001C90041EAD2
:1026E8005371DB00181863684FEA83024FEA93734B
:1026F80041F10001FDF75EFD204DA5FB00325109B7
:10270800642303FB11031B013233A5FB03235B097D
:1027180003F0F00202EB011203F00F0321681344E7
:102728008B6038BD0023021843EB0301121841F1F6
:102738000001C90041EA5271D200101841F10001AC
:10274800626892185B41FDF735FD0C4DA5FB003220
:102758005109642303FB1103DB003233A5FB032378
:102768005B095A0002F4F87202EB011203F0070346
:10277800216813448B60D4E7001001401F85EB519A
:10278800704758B310B5044690F83D300BB3242376
:1027980084F83D302268D36823F40053D360204680
:1027A800FFF766FF2268136923F4904313612268D8
:1027B800536923F02A0353612268D36843F4005312
:1027C800D36000202064202384F83D3084F83E3014
:1027D80010BD80F83C30FFF7D3FFD8E701207047E1
:1027E800002830D010B5044690F83D3033B3242388
:1027F80084F83D302268D36823F40053D360204620
:10280800FFF736FF2268136923F4904313612268A7
:10281800536923F0220353612268536943F0080384
:1028280053612268D36843F40053D36000202064C6
:10283800202384F83D3084F83E3010BD80F83C30C9
:10284800FFF79EFFD3E70120704790F83D30DBB2D9
:10285800202B19D1D1B1DAB190F83C30012B19D025
:10286800012380F83C3001628284C284002303641F
:10287800212280F83D2080F83C300168CA6842F087
:102888008002CA60184670470220704701207047CE
:10289800012070470220704708B50168CA6822F015
:1028A8004002CA60202280F83D20FEF7CAFE0020C0
:1028B80008BD08B5806B0023C385C384FEF7C8FE36
:1028C80008BD704790F83E30DBB2222B67D1836891
:1028D800B3F5805F4DD0826AB3F5805F04D0002BDA
:1028E80054D10369002B51D103685B681370836A64
:1028F80001338362C38D9BB2013B9BB2C385002B1E
:102908004FD100B583B00268D36823F02003D360A9
:102918000268D36823F48073D3600268536923F094
:1029280001035361202380F83E30036B012B33D120
:1029380000230363026802F10C0353E8003F23F00D
:1029480010030C3242E800310029F3D103681A68F9
:1029580012F0100F06D0002201921A6801925B68EB
:102968000193019B818DFFF7ACFF002003B05DF858
:1029780004FB0269002AAED1826A03685B68C3F36C
:1029880008031380836A02338362B3E703685B68D2
:1029980003F07F031370AAE7FEF74CFEE5E7022079
:1029A800704700207047000030B583B004460268C5
:1029B8001368D068516913F00F0505D113F0200F83
:1029C80002D010F0200F19D12DB111F0010119D149
:1029D80010F4907F16D1216B01297DD013F0800F60
:1029E80003D010F0800F40F0158113F0400F03D092
:1029F80010F0400F40F0128103B030BD2046FFF7C1
:102A080061FFF9E713F0010F06D010F4807F03D0BF
:102A1800226C42F00102226413F0040F04D019B1B1
:102A2800226C42F00202226413F0020F04D019B1A2
:102A3800226C42F00402226413F0080F07D010F051
:102A4800200F00D119B1226C42F008022264226CD6
:102A5800002AD1D013F0200F02D010F0200F29D176
:102A680023685B6903F04003226C12F0080F00D161
:102A780063B32046FFF79EFD23685B6913F0400FA0
:102A880020D0226802F1140353E8003F23F04003EA
:102A9800143242E800310029F3D1A36B73B1614AC3
:102AA8001A65A06BFFF712F90028A5D0A06B036D7B
:102AB8009847A1E72046FFF705FFD1E72046FEF734
:102AC800C7FD99E72046FEF7C3FD95E72046FEF7C8
:102AD800BFFD002323648FE713F0100F3FF47EAF90
:102AE80010F0100F3FF47AAF00230193136801939D
:102AF80053680193019B536913F0400F50D0A26BA8
:102B080013685B689BB2002B3FF476AFA18D9942A6
:102B18007FF672AFE385D369B3F5807F37D022683B
:102B280002F10C0353E8003F23F480730C3242E8AF
:102B380000310029F3D1226802F1140353E8003F61
:102B480023F00103143242E800310029F3D122684E
:102B580002F1140353E8003F23F04003143242E823
:102B680000310029F3D1202384F83E300023236369
:102B7800226802F10C0353E8003F23F010030C32E3
:102B880042E800310029F3D1A06BFFF755F8A18D79
:102B9800E38D9BB2C91A89B22046FFF792FE2BE754
:102BA800A18DE38D9BB2C91A89B2E38D9BB2002B2C
:102BB8003FF422AF00293FF41FAF226802F10C0353
:102BC80053E8003F23F490730C3242E800300028A9
:102BD800F3D1226802F1140353E8003F23F0010304
:102BE800143242E800300028F3D1202384F83E3024
:102BF80000232363226802F10C0353E8003F23F00B
:102C080010030C3242E800300028F3D12046FFF7C9
:102C180058FEF1E62046FFF7FBFCEDE62046FFF7FD
:102C28003BFEE9E6BB28000890F83C30012B14D0A5
:102C3800012380F83C30242380F83D300268D368B3
:102C480023F00C0343F00803D360202380F83D30C1
:102C5800002380F83C30184670470220704790F8EF
:102C68003C30012B14D0012380F83C30242380F819
:102C78003D300268D36823F00C0343F00403D360AB
:102C8800202380F83D30002380F83C3018467047F8
:102C98000220704790F83D3090F83E001843704786
:102CA800034681628285C28500201864222283F847
:102CB8003E2083F83C001968CA6842F48072CA60F2
:102CC80019684A6942F001024A611A68D36843F0F8
:102CD8002003D360704708B590F83E30DBB2202B54
:102CE8000DD171B17AB190F83C30012B0DD0012390
:102CF80080F83C3000230363FFF7D2FF00E0022096
:102D080008BD0120FCE70120FAE70220F8E70000EF
:102D18000D4BD3F8FC3013F0807F06D10A4AD2F865
:102D2800FC3043F08073C2F8FC30084B00225A6034
:102D38001A6842F001021A6000BF00BF00BF58685D
:102D4800B0FA80F04009704700ED00E0001000E0A4
:102D58000438704788B00268444B9A421DD0036813
:102D6800B3F1804F26D00268414B9A422FD00268B7
:102D7800404B9A4238D002683F4B9A4241D0026891
:102D88003E4B9A424AD002683D4B9A4253D0026861
:102D98003C4B9A425CD008B07047002300933A4BF2
:102DA8005A6C42F001025A645B6C03F00103009311
:102DB800009BD4E700230193334B1A6C42F00102C5
:102DC8001A641B6C03F001030193019BCBE70023FA
:102DD80002932D4B1A6C42F002021A641B6C03F02A
:102DE80002030293029BC2E700230393264B1A6C4B
:102DF80042F004021A641B6C03F004030393039B60
:102E0800B9E700230493204B1A6C42F008021A64B5
:102E18001B6C03F008030493049BB0E7002305939D
:102E2800194B5A6C42F480325A645B6C03F4803359
:102E38000593059BA7E700230693134B5A6C42F4AE
:102E480000325A645B6C03F400330693069B9EE7DA
:102E5800002307930C4B5A6C42F480225A645B6C33
:102E680003F480230793079B95E700BF0000014008
:102E78000004004000080040000C004000400140F1
:102E88000044014000480140003802400268284BD5
:102E98009A421CD00368B3F1804F1ED00268254BBC
:102EA8009A4220D00268244B9A4222D00268234BCF
:102EB8009A4224D00268224B9A4226D00268214BBB
:102EC8009A4228D00268204B9A422AD070471F4A5B
:102ED800536C23F001035364DCE71C4A136C23F0A2
:102EE80001031364DAE7194A136C23F0020313642D
:102EF800D8E7164A136C23F004031364D6E7134A81
:102F0800136C23F008031364D4E7104A536C23F4BA
:102F180080335364D2E70D4A536C23F4003353646F
:102F2800D0E70A4A536C23F480235364CEE700BFEA
:102F3800000001400004004000080040000C004070
:102F48000040014000440140004801400038024070
:102F5800B0F1FF3F2DD008B51B4B98422CD00ED8AE
:102F6800A3F50063984229D003F58063984201D104
:102F78001E2016E0B0F1804F14D11C2011E0134B35
:102F880098421DD004D9124B98420BD11A2008E060
:102F9800A3F58843984215D003F58043984201D1A0
:102FA800182008BD01460B48FEF7BEF96FF00D006A
:102FB800F7E76FF00D0070473220F2E71D20F0E7C9
:102FC8001920EEE71920ECE7000C0040004401400E
:102FD8000048014074540008B0F1FF3F2DD008B5F7
:102FE8001B4B98422CD012D8A3F57843984229D08D
:102FF80004D9184B984219D1322007E0B0F1804F1C
:1030080022D0A3F58063984210D11D2008BD124B31
:1030180098421BD003F58063984201D11A20F5E746
:10302800A3F50063984201D11820EFE701460B4849
:10303800FEF77AF96FF00D00E8E76FF00D007047C2
:103048001B20E3E71E20E1E71C20DFE71920DDE76E
:1030580000000140000C0040004401407454000886
:1030680070B50446FFF774FE05462046FFF772FE6A
:103078002068FFF76DFF2A6DE96CFDF7D3FE206825
:10308800FFF766FFFDF706FF2068FFF7A5FF064676
:103098002068FFF75DFF864200D170BD2068FFF70A
:1030A8009BFF2A6DE96CFDF7BDFE2068FFF794FFD2
:1030B800FDF7F0FEF1E70B460146184600F0F8BCB4
:1030C8007FB500241023CDE90234036815469E69B4
:1030D80012686B46CDE90044B0479DF8043003F010
:1030E8000603062B03BF009B2B600120204604B07B
:1030F80070BD0098904214BF012006207047000060
:1031080010B5034B0360044600F029FC204610BDAF
:10311800C454000810B50446FFF7F2FF2046082102
:10312800FEF732FD204610BD2DE9F0411F46DDE9CE
:103138000834DDF8188098450646154607D10799E2
:1031480000F010FC18B165710020BDE8F081394627
:10315800304600F007FC0028F6D00123C4F80080B0
:103168002571A371F0E738B515461C4600F0FAFB47
:1031780020B10823E36006232560237138BD73B5A9
:1031880005460C4601921E4600F0ECFB50B9032E92
:1031980008D82368019A5B692946204602B0BDE831
:1031A8007040184702B070BD1EB400F09CF81EBCF9
:1031B800FDF7A6F80378472B17D143784E2B14D187
:1031C8008378552B11D1C378432B0ED10379432B28
:1031D8000BD143792B2B08D183792B2B05D1C079BF
:1031E80001288CBF00200120704700207047000094
:1031F8002DE9F3411D460378472B0E460246C17957
:1032080013D143784E2B10D18378552B0DD1C37829
:10321800432B0AD10379462B07D143794F2B04D18D
:103228008379522B01D1002931D01046FFF7C2FF14
:1032380080F00100C4B200230020019053BB5CBBA6
:1032480001290ABF52F8203CA2F12003783B01294A
:1032580008BF52F8202C1C6818BF58320192236806
:1032680020469B689847C8B1019B1B6801930227B9
:10327800336801AAD3F81080214601233046C0479D
:1032880070B1019B2B60384602B0BDE8F081012384
:103298000C46D1E7034CE2E7034CE0E70127E7E7F8
:1032A8000746F0E7E8540008F054000810B5044653
:1032B80000F032F802462046A4F12001FFF77AFF19
:1032C80060B154F8043C0133012B44F8043C03D1A9
:1032D800936844F8083C9160012010BD9368002B66
:1032E800F9D000F0A5FA10B500F016F8826801468A
:1032F8000AB900F09DFA02F120042046FFF75AFFB0
:1033080040B1D369013BD36113B990698860936177
:10331800204610BD8860FBE7004870471C0300206A
:1033280030B500231A4610F8015B05F07F0494407D
:1033380023432C0602F10702F5D40B6030BD30B5EB
:1033480000231A4610F8014B04F07F0595402B43E3
:10335800250602F10702F5D41F2A06D8640642BFE3
:103368004FF0FF3404FA02F213430B6030BD5028CB
:103378002DE9F3410646884615461F4608D1033213
:1033880022F0030050F8044B3C6002B0BDE8F08125
:1033980000F00F030C2B2ED8DFE803F025071D25BE
:1033A800292D2D2D2D182125290001A92846FFF7A3
:1033B800B7FF019C002CE7D006F07003102B08BF64
:1033C800A8464444330648BF2468DDE701A92846D7
:1033D800FFF7B5FFEDE7284630F8024BEAE7284645
:1033E80030F9024BE6E7284650F8044BE2E7284656
:1033F80050F8084BDEE700F054FB08B50346FF2BF6
:10340800084610D003F07002302A12D007D8202ABC
:103418000BD002D813F0600F05D000F042FB402A11
:103428000BD0502AF9D1002008BDBDE8084001F0B2
:103438001EBDBDE8084001F017BDBDE8084001F019
:1034480003BD13B50C4601462046CDE90032FFF70F
:10345800D4FFDDE900320146204602B0BDE8104045
:10346800FFF785BF73B50C461546064628B301F02D
:10347800EBFC034620462B6010F8011BFF291ED0E9
:1034880002462B1D3046FFF7DCFF10F8013B2B7579
:10349800FF2B16D010232B7501A9FFF741FF019BC5
:1034A8000344EB6010F8013B6B7501A9FFF738FF87
:1034B800019B03442B6102B070BD0346DAE76B60E1
:1034C800E3E70023EDE71FB503AB009300230A46AB
:1034D800194600F0F3FF039805B05DF804FB0000FF
:1034E8002DE9F04F91B00023059300F00303012B61
:1034F80006460C4617460ED0022B03D0002B3BD1B4
:1035080001073BD53946204601F088FC90B30920D5
:1035180011B0BDE8F08F020706D40D6A38460D21B8
:10352800FFF7D1FF85422BD00220002306F00806C2
:103538000DF1280A0643CDF800A00C22194638469A
:103548000A9400F0E1FF062E1CD1D4F83080D4E9AB
:103558000A59B8F1000F0CBF4FF0010B4FF0030BE5
:1035680016F0080600F00781BBF1010F40F0FF805C
:1035780000F05EF90820CBE700F093FA0120D4E7C9
:103588000620D2E7384601F065FC81460028B9D00C
:10359800524601463846FFF765FF394605469DF80D
:1035A8003C00FFF72AFF0F210C903846FFF78BFFEE
:1035B80020F0010808F1FF380E9BAB4240F2BF80B3
:1035C8002A469DF83D1006AB0020FFF73AFF9DF80C
:1035D8003D10024607AB0020FFF733FF08AB024659
:1035E8009DF83D100020FFF72CFF09A9FFF798FE72
:1035F8000A9B069A13444345054601D90E9DDBE70D
:10360800079A13444345D7D9DDF82080B8F1000F55
:1036180001D00B9B9844099D15B10E98013D0544B6
:10362800B8F1000F3FF46EAF002D00F0F28016F0F5
:103638000803029334D0472323704E236370552325
:10364800A3704323E370462323714F2363715223EE
:10365800A3710023E3714FF0000B07A92846FFF779
:103668006EFE08A90390FFF76AFE0799002963D048
:103678003ADD9DF83C00FF2832D000F00703042B08
:103688003FF67AAF01A252F823F000BFED360008EA
:1036980081350008BB360008ED360008E53600081D
:1036A800E379012B0CBF54F8203C04F1580305932F
:1036B800D1E702250D9A09AB05FB11220C99FFF7FA
:1036C80056FE099931B15CB305AB00222046FFF7DD
:1036D8008FFD28B3079D4FF0030B34E00825E9E779
:1036E8000025E7E70425E5E7C1F17F5101F57F11E2
:1036F8000D9B01F57F513F3103EB8105BCB1029A67
:10370800AAB9059B0993043D55F8041F0029E1D087
:1037180009AB002229442046FFF76AFD0028F3D0B0
:10372800089D002D71D0039B2B441D4695E753F847
:103738002130002BF4D1CDE74FF0010BF0E7002545
:10374800A8464FF0010BF3077FF50AAFBBF1020F54
:103758003FF4D8AE0D213846059EFFF7B4FEC4E904
:103768000A59C4E90806C4F830800620D0E6002DBE
:1037780022DA00F06FF8BBF1010F02D1204600F009
:1037880027F9002D18DA524649463846FFF76AFEEF
:103798009DF83C003946FFF730FE0D9A0C90EB433C
:1037A80002EB830353F826200AB10136FAE7042214
:1037B800C4E90A60C4E90C23002309AE1A46194675
:1037C80000963846099400F09FFE0023194601220E
:1037D80000963846099500F097FE0F213846FFF706
:1037E80072FE00F0010040EA0800002309900096EC
:1037F8000F221946384600F087FEBBF1020F02D1AE
:103808002046FFF753FD072082E6BBF1000F3FF487
:1038180079AE4FF0020B96E708B5804700F041F902
:10382800024B1868BFF35B8F704700BF2C00002065
:1038380008B5FFF7F5FFFFF7EFFF08B58047FFF77B
:10384800F7FF0000024B1868BFF35B8F704700BF9B
:103858002800002008B5FFF7F5FFFFF7EEFF00008E
:1038680010B5034B03600446FFF74AFC204610BD21
:103878007855000810B50446FFF7F2FF20460C21E2
:10388800FEF782F9204610BDF7B5089F9742054616
:103898000E4614460AD0A86802680897156A314689
:1038A8002246AC4603B0BDE8F04060471946019394
:1038B80000F058F8019B0028EDD0062003B0F0BDB9
:1038C8002DE9F14F0D461946DDE90A4BDDE90CA655
:1038D80081461746984600F045F890B1002D3460AF
:1038E800377109DB61198A450CBF06210121B171C5
:1038F800002001B0BDE8F08F0235F9D10123B37182
:10390800F6E7544506D15946484600F02BF808B169
:103918007771EDE7D9F808000368CDE90CA6CDE981
:103928000A4BDC693A4643462946A44601B0BDE83D
:10393800F04F60472DE9F04107460C4615461E46F4
:10394800FFF711FC48B9B86803689F692A463346EF
:103958002146BC46BDE8F0416047BDE8F0817047AC
:1039680000207047814208B50ED0406803782A2BA2
:103978000CD049680B782A2B08BF0131FCF708FCEA
:10398800B0FA80F0400908BD0120FCE70020FAE702
:1039980008B500F086F80378472B17D143784E2BEB
:1039A80014D18378552B11D1C378432B0ED10379C9
:1039B800432B0BD143792B2B08D183792B2B05D1A2
:1039C800C07901288CBF0020012070470020704773
:1039D80010B5044648B100F03BF82046FFF7DBFF7E
:1039E80018B154F8140CFFF717FFFFF721FF38B58B
:1039F8000246FFF7D0FF044640B152F8184C0025A4
:103A0800104600F025F81DB1FFF724FF0125F7E760
:103A18002046FFF712FF0378472B17D143784E2B28
:103A280014D18378552B11D1C378432B0ED1037948
:103A3800432B0BD143792B2B08D183792B2B05D121
:103A4800C07901288CBF00200120704700207047F2
:103A580038B50446FFF760FC056802462046A4F125
:103A68002001FFF7D8FF28B90DB1FFF7E1FE11607B
:103A7800284638BD54F80C3C002BB4BFC3F10103F1
:103A8800013344F80C3C53688D4203F1FF33536013
:103A980020461CBF44F8105C1160656A00F00CFDFC
:103AA800E6E708B5062000F07BF9012001F000FAEE
:103AB80010B5054C13462CB10A4601460220AFF357
:103AC800008010BD2046FCE70000000070B50D4DD9
:103AD8000D4C641BA4100026A64209D10B4D0C4CBA
:103AE80001F0E8F9641BA4100026A64205D170BDB8
:103AF80055F8043B98470136EEE755F8043B9847DC
:103B08000136F2E7985900089859000898590008B2
:103B1800A8590008024B0146186800F08DB800BF8C
:103B280030000020024B0146186800F019B800BFA9
:103B3800300000200A44914200F1FF3300D1704761
:103B480010B511F8014B03F8014F9142F9D110BD9E
:103B580002440346934200D1704703F8011BF9E77A
:103B680037B5002944D051F8043C0190002BA1F14D
:103B78000404B8BFE41800F039F91E4A0198136824
:103B880033B96360146003B0BDE8304000F034B965
:103B9800A34208D9256861198B4201BF19685B687F
:103BA80049192160EDE71A465B680BB1A342FAD9BF
:103BB80011685518A5420BD1246821445418A34212
:103BC8001160E0D11C685B68536021441160DAE73A
:103BD80002D90C230360D6E7256861198B4204BF1C
:103BE80019685B68636004BF491921605460CAE7BB
:103BF80003B030BD2803002070B50E4E0C46316866
:103C0800054611B900F094F830602146284600F0C6
:103C18008FF8431C0AD0C41C24F00304A04207D028
:103C2800211A284600F084F8013001D14FF0FF3402
:103C3800204670BD2C0300202DE9F041CD1C25F055
:103C4800030508350C2D38BF0C25002D074601DB70
:103C5800A94205D90C233B6000263046BDE8F08117
:103C68002E4E00F0C3F833681C4634BB294638464C
:103C7800FFF7C2FF431C04464DD134682646002E88
:103C880040D123683146384604EB030800F050F869
:103C980080453AD1216803356D1A25F003050835AA
:103CA8000C2D38BF0C2529463846FFF7A5FF0130F3
:103CB8002BD023682B4423600EE02268521B1ED4AD
:103CC8000B2A16D96119A342256018BF5960636889
:103CD80008BF316062514B60384604F10B0600F0B2
:103CE8008BF826F00706231DF21AB6D09B1BA350AB
:103CF800B3E76268A3420CBF32605A60ECE7234620
:103D08006468B2E734467668B9E70C233B60384606
:103D180000F072F8A1E72560DEE700BF2803002065
:103D2800024B0A460146186800F06CB830000020C3
:103D380038B5064D0023044608462B6001F0AAF862
:103D4800431C02D12B6803B1236038BD3403002023
:103D58001F2938B504460D4604D9162303604FF0D1
:103D6800FF3038BD426C12B152F821304BB92046B1
:103D780000F030F82A4601462046BDE8384000F0F9
:103D880017B8012B0AD0591C03D116230360012050
:103D9800E7E7002442F82540284698470020E0E756
:103DA800024B01461868FFF7D3BF00BF3000002060
:103DB80038B5074D00230446084611462B6001F02C
:103DC80061F8431C02D12B6803B1236038BD00BFE2
:103DD8003403002001F04EB8034611F8012B03F814
:103DE800012B002AF9D17047704770470148FFF747
:103DF800FBBF00BF300300200148FFF7F6BF00BF3C
:103E0800300300202DE9F041804614460E4621B9C2
:103E1800BDE8F0411146FFF70FBF2AB9FFF7A0FE32
:103E280025462846BDE8F08100F01BF88442074685
:103E380002D8B4EB500F12D821464046FFF7FCFEDB
:103E480005460028EDD0BC422246314628BF3A46F6
:103E5800FFF770FE31464046FFF782FEE1E7354640
:103E6800DFE751F8043C181F002BBCBF0B58C018E3
:103E7800704700002DE9F047089D04468E46002B48
:103E88004DD18A42944669D9B2FA82F252B101FA06
:103E980002F3C2F1200120FA01F10CFA02FC41EA16
:103EA800030E94404FEA1C48210CBEFBF8F61FFA9B
:103EB8008CF708FB16E341EA034306FB07F1994236
:103EC8000AD91CEB030306F1FF3080F01F819942E9
:103ED80040F21C81023E63445B1AA4B2B3FBF8F0C3
:103EE80008FB103344EA034400FB07F7A7420AD94A
:103EF8001CEB040400F1FF3380F00A81A74240F272
:103F080007816444023840EA0640E41B00261DB1DC
:103F1800D4400023C5E900433146BDE8F0878B4211
:103F280009D9002D00F0EF800026C5E900013046D0
:103F38003146BDE8F087B3FA83F6002E4AD18B42AA
:103F480002D3824200F2F980841A61EB0303012054
:103F58009E46002DE0D0C5E9004EDDE702B9FFDE40
:103F6800B2FA82F2002A40F09280A1EB0C014FEAEB
:103F78001C471FFA8CFE0126200CB1FBF7F307FB48
:103F8800131140EA01410EFB03F0884208D91CEBEB
:103F9800010103F1FF3802D2884200F2CB80434688
:103FA800091AA4B2B1FBF7F007FB101144EA014467
:103FB8000EFB00FEA64508D91CEB040400F1FF31F6
:103FC80002D2A64500F2BB800846A4EB0E0440EAE4
:103FD80003409CE7C6F12007B34022FA07FC4CEAED
:103FE800030C20FA07F401FA06F31C43F9404FEAE0
:103FF8001C4900FA06F3B1FBF9F8200C1FFA8CFEF5
:1040080009FB181140EA014108FB0EF0884202FA48
:1040180006F20BD91CEB010108F1FF3A80F0888009
:10402800884240F28580A8F102086144091AA4B2C6
:10403800B1FBF9F009FB101144EA014100FB0EFE47
:104048008E4508D91CEB010100F1FF346CD28E4576
:104058006AD90238614440EA0840A0FB0294A1EB07
:104068000E01A142C846A64656D353D05DB1B3EB64
:10407800080261EB0E0101FA07F722FA06F3F14094
:104088001F43C5E9007100263146BDE8F087C2F13B
:104098002003D8400CFA02FC21FA03F391400143B3
:1040A8004FEA1C471FFA8CFEB3FBF7F007FB1036EC
:1040B8000B0C43EA064300FB0EF69E4204FA02F498
:1040C80008D91CEB030300F1FF382FD29E422DD9EB
:1040D800023863449B1B89B2B3FBF7F607FB163320
:1040E80041EA034106FB0EF38B4208D91CEB0101A0
:1040F80006F1FF3816D28B4214D9023E6144C91A20
:1041080046EA004638E72E46284605E70646E3E62F
:104118001846F8E64B45A9D2B9EB020864EB0C0E39
:104128000138A3E74646EAE7204694E74046D1E748
:10413800D0467BE7023B614432E7304609E76444F6
:10414800023842E703685A004CBF43F0004323F0AB
:1041580000431844704700BF2DE9F84329B34F1EA8
:10416800044615463E464FF0000808EB060101EBF1
:10417800D171491004EBC1094846FFF7E3FF034634
:10418800C80008308F42204409D0AB4209D8FFF755
:10419800D9FF0138A8420AD201F10108E5E7AB428C
:1041A80005D9884501D04E1EDFE74FF00009484683
:1041B800BDE8F883012807D0022807D0044B00285F
:1041C8000CBF1846002070470248704702487047E5
:1041D800854800088D4800089548000830B5234BED
:1041E80083B004468D1E3BB301A92846AFF3008077
:1041F800E8B101992A46FFF7AFFF0146B8B1FFF7CA
:10420800A1FF4B68A064012B2CD0002B01F1040006
:1042180024DBFFF797FF0023C4E913030368002B8F
:1042280011DBFFF78FFF2061002003B030BD0023B2
:104238000920236103B030BD0D4B0E49C91AC910BE
:1042480018460191D6E7C3F30360FFF7B3FF0028D0
:10425800206114BF0020092003B030BD0123C4E948
:104268001303DBE7002323610520DEE700000000DD
:1042780060570008985900080368DA0710B5044623
:1042880006D49B0700F1480009D5FBF7BFFF236858
:10429800590709D51A070ED5DB0613D510BDFBF74C
:1042A800ADFF23685907F5D404F1D000FBF7B6FF3A
:1042B80023681A07F0D404F5A870FBF7B7FF236842
:1042C800DB06EBD404F5E870BDE81040FBF7F2BF5D
:1042D8000346006800B11844704700BF704700BF2C
:1042E80070B504460E46316C2046FFF777FF054649
:1042F80088B9326C626123693246214601209847A9
:104308000828F0D0072806D12846316CFFF7E6FFC9
:10431800301DFBF767FFFFF7C4FB00BF2DE9F0472F
:104328000D1DD0F80C80D0F81890074614460FCD14
:10433800ADF5727D0DF10C0CACE80F000FCDACE8BB
:104348000F000FCDACE80F0095E80F0002AE4FF05C
:10435800000E8CE80F00C6F800E020E0336C7B61AB
:104368004FF4F07231467AA8FFF7E4FB3B697AAA6A
:10437800394650469847889B73642146CDE90069C1
:1043880005463B463A460120C0470446E0B94FF48B
:10439800F0727AA93046FFF7CDFB082D1AD1316C9F
:1043A8003846FFF71BFF09345FFA84FA05460028F0
:1043B800D4D0B36B73643A46CDE900693B464AF002
:1043C80010010120C04700B1092528460DF5727D6E
:1043D800BDE8F087072DF7D12046316CFFF77EFF47
:1043E80003A8FBF7FFFE00BFF0B5CB6B0B6401F130
:1043F800040C0E460546BCE80F00F9B001AC0FC42A
:10440800BCE80F000FC4BCE80F000FC49CE80F0005
:104418004FF0FF3784E80F00009706E02B696A46E3
:10442800294698470828044608D110992846FFF7D6
:10443800D5FE0028F2D0092079B0F0BD6846FFF714
:104448001BFF062CF7D131462846FFF749FF00BF6E
:10445800C160D96B8261196400221946FFF75EBFFB
:1044680070B5C66843690B64AEB903690A46044669
:104478000D46014602209847072805D008280FD185
:1044880029462046FFF72CFF3046296CFFF726FF08
:10449800281DFBF7A7FE0122FFF740FFFFF701FBEE
:1044A800FFF7FFFAC26822B1CA6B0A640022FFF75D
:1044B80035BFFFF799BF00BF704700BF012912D071
:1044C80009D873B90F2A0CD800EB82021846536832
:1044D800009A136070470339012994BF0120022014
:1044E8007047022070470846704700BF00B585B086
:1044F8000A46002303A900911946FFF7DFFF039836
:1045080005B05DF804FB00BF012912D009D873B9C2
:104518000F2A0CD800EB8200009A126842601846F5
:1045280070470339012994BF0120022070470220F7
:1045380070470846704700BF10B584B0002303AC2D
:10454800039200940A461946FFF7DEFF04B010BD37
:1045580070B5D36B136402F1040C05460C46BCE835
:104568000F00ADF50E7D0DF15C0EAEE80F00BCE856
:104578000F00AEE80F00BCE80F00AEE80F009CE8A3
:104588000F004FF0FF368EE80F00169610E0FFF789
:10459800D3FF214616A8A847034616AA694608204D
:1045A80083B9049B9847052806460CD0092809D0EA
:1045B80026996846FFF712FE03466A460C2116A89C
:1045C800002BE4D0092616A8FFF756FE30460DF555
:1045D8000E7D70BD2DE9F04FCC6C89B01E4654F8A5
:1045E800043B06940D46174600F00308002E79D0C8
:1045F8001A0C1B0405938DF81D200223D2B204EB7C
:1046080082048DF81C302B6DB8F1020F08BFAC6B1B
:1046180013F001030CD005A9384600F0A9FA18B91F
:10462800082009B0BDE8F08F092009B0BDE8F08F77
:10463800D4F800A0BAF1000FEDD0019300F0080300
:104648000293022E4AD0B4F800A0B4F802900434C1
:10465800AB6C29F0010B0F2138469B44FFF746FF4E
:10466800834539D82AF001039B44834594BF002031
:1046780001204FEA490303F002030AF0010A43EA62
:104688000A03012B49D0022B32D0002BCCD1B8F130
:10469800000F02D0002840F0CD800434D4F800A0E8
:1046A800BAF1000FCDD105A9384600F061FA00280B
:1046B800BAD1019B002BB3D00F213846FFF716FF64
:1046C8000E2102463846FFF737FF38466A4A0F215F
:1046D800FFF732FF0720A8E70020CAE7D4F80490C4
:1046E8000834B5E71B0205930323ADF81C308AE7AD
:1046F800236823F0004BB8F1000F45D128B1029A86
:10470800002A5CD0BBF1000F74D0002B00DA04340F
:104718000BF1010B04EB8B04C0E7B8F1000F19D1C2
:10472800B0B163682268991C4FEAD2723FF47CAF3B
:1047380005F158010133049100F09080201DFFF726
:10474800C7FD04AB01462846FEF752FD00285BD1A1
:104758000834A3E70D213846D5F82090FFF7C6FEA8
:104768008145F5D1AB6A9C42F2D12046FFF7EAFCBD
:104778000F2102463846FFF7DFFE38462A46002159
:10478800FFF7DAFE072050E70D213846D5F82090CC
:10479800FFF7ACFE814501D02368B6E7AB6A9C42BF
:1047A800FAD104230022C5E90B23E318C5F828B081
:1047B8006B632368002B59DB01230193A8E705F1FC
:1047C8005803CDF80C8004F1040AB04691461E4601
:1047D8000EE050460496FFF77BFD0022014604AB2D
:1047E800284609F101090AF1040AFEF701FDE0B9BA
:1047F800D945EED10D213846FFF778FE049BAC620F
:10480800C5E90803062010E781460D213846FFF761
:104818006DFEB9F1020F286225D12B46049A43F8A0
:104828002C2F6B62AC620620FFE646462368DDF853
:104838000C806AE72046FFF785FC04340246AC6327
:1048480028461446FEF732FD00283FF4EDAE384600
:1048580022460F21FFF770FE0720E6E60D213846B5
:10486800FFF744FE2862049B6B62DBE70BF1010053
:1048780004EB80007AE700BFF73900080023FFF750
:10488800A9BE00BF0123FFF7A5BE00BF0223FFF7A3
:10489800A1BE00BF2DE9F0430646C3B015461C462D
:1048A800042900F2BF80DFE801F09E57BD2D030008
:1048B800002C40F0B780102A00F2B4800368D806B4
:1048C80000F1F98020AF3846FBF7FEFCB46B39469F
:1048D80000234FF0010C0CFA03F22A42204603F1A0
:1048E800010303D050F8042B0A600446042B01F19D
:1048F8000401F0D13846B463FBF7DCFC002043B078
:10490800BDE8F083032C40F08D8094B204EB124391
:10491800102B4FEA124500F2858003681F0700F14B
:10492800D28020AF3846FBF7A3FCB26B07EBC5017A
:1049380054B10B46D01A01EBC401E4001D5843F8EA
:10494800045B8B42FAD122443846B263FBF76EFC13
:10495800002043B0BDE8F083012C4FEA124895B21D
:104968005CD0052C5ED108EB0509B9F1200F59D8A8
:10497800B8F10F0F79D9A946002D40F08A80B36BA2
:104988006DB320AF4FF0000907EBC807043F03EBF6
:10499800C50553F8041B47F8041FAB42F9D1B9F118
:1049A800000F0FD06F464146102938BF102107EB82
:1049B800C101843903EBC90553F8040B41F8040F0E
:1049C800AB42F9D1012C00F08680B8F10F0FB56326
:1049D80047D9B9F1000F02D06846FBF71FFC002049
:1049E80043B0BDE8F083ECB9806B23461FFA82FC24
:1049F8000124371D04FA03F212EA0C0F014604D011
:104A080051F8042B47F8232008460133102BF1D125
:104A180015F40055E3D1B063284604E008EB05031C
:104A2800102B03D9022043B0BDE8F083B8F10F0F73
:104A3800F8D83368DA0706D5304623F0030340F880
:104A4800483BFBF7DFFB20AF3846FBF7DBFBB36BDC
:104A5800002D97D11D460435B5633846FBF7CEFBCC
:104A6800BDE720A8FBF7D2FBB3E7B9F1100F40D997
:104A7800A9F110093368D90708D523F00103304696
:104A880043F0020340F8483BFBF7C4FBB9F1000FC1
:104A980032D033685A0720D4B8F10F0F25D96F46A2
:104AA8003846C8F11005FBF7BDFB002DB36B7FF747
:104AB8007AAF20AF68E723F01003336006F5E8709B
:104AC800FBF702FCFEE623F00803036000F5A8707C
:104AD800FBF7CEFB25E720AFBDE7304623F0040304
:104AE80040F8D03BFBF79EFBD6E720A8FBF792FBEC
:104AF800D5E74FF00009BDE7B8F10F0F3FF63FAF1C
:104B080020AF3846FBF786FBB36B002D7FF43AAF36
:104B18003846FBF77BFB62E7027A03467AB9427AAA
:104B2800A2B14168013A10B44272086803220C1D10
:104B38001A7202025C60000E10BC1A6070470068AE
:104B4800013A1A7202021A60000E7047B0207047CC
:104B580000B585B0002303AA009219460C22FFF77E
:104B6800ADFC039805B05DF804FB00BFFFF7F0BF8C
:104B78002DE9F043054685B00E464FF00008304653
:104B8800FFF7CAFFB028044600F0BA80070620D510
:104B980000F0F003802B4DD0902B36D0A02B60D0A6
:104BA800B02B74D0C02B00F08B8000F0F803D02B12
:104BB8000BD100F007020132052342F40022012143
:104BC8002846FFF767FE0028D9D0092005B0BDE8C0
:104BD800F0838300DBB21F1D0DF10C090023194679
:104BE800CDF800900D222846FFF768FC039BCDF80E
:104BF800009060064CBFDF1BFF1800230D221946EA
:104C080028460397FFF780FCB9E700F00D030D2B4A
:104C1800DBD003AF002300F00F02194600972846A7
:104C2800FFF74CFC002300970D2219462846FFF792
:104C38006BFCA4E73046FFF76FFF24022043B0F572
:104C4800004FC2D004010023A2B219462846FFF73C
:104C580021FE0028B9D114F4004F18BF4FF0010805
:104C68008DE7C24302F007034FF47F621A41010740
:104C780002F47F624FF0000348BF42F480421946B5
:104C88002846FFF707FE00283FF479AF9DE7B128D3
:104C98003BD0B22800F09380B32841D000F0FC0349
:104CA800B42B92D000F007020132012342F4002213
:104CB80019462846FFF7EEFD00283FF460AF84E769
:104CC800C6284AD0C72854D000F0F803C02B63D0B8
:104CD800C82868D0C9287FF478AF3046FFF71CFF92
:104CE800020300F00F0002F4702201300243012198
:104CF80005232846FFF7CEFD00283FF440AF64E7C0
:104D0800B8F1000F18D0002060E73046FFF704FF25
:104D1800024600283FF459AF10F0F003C8D054E71A
:104D28003046FFF7F9FE020300F00F03013302F4E7
:104D380070221A430123BBE703AC43460E224146C7
:104D480000942846FFF7BAFB009443460F224146D9
:104D58002846FFF7D9FB404638E73046FFF7DCFE28
:104D6800020300F00F03013302F470221A430323F5
:104D78009EE73046FFF7D0FE024600283FF425AFF5
:104D880010F0F0037FF421AF04212846FFF782FDDD
:104D980000283FF4F4AE18E700F00F0201320323B5
:104DA80042F4202284E73046FFF7B6FE00F0F00216
:104DB80000F00F031032013343EA023297E7002371
:104DC8000DF10C090D221946CDF800902846FFF781
:104DD80075FB3046FFF7A0FE02064FF002040CD523
:104DE800039B00F07F00A040184403903046FFF773
:104DF80093FE030604F10704F2D4039BCDF8009058
:104E080000F07F02A24003F501731A4400230392C5
:104E180019460D222846FFF777FBB0E610B5C26C9D
:104E2800536884B04FF0030C08321C0208461B0E6E
:104E380001A9019402928DF80CC08DF80D30FFF78E
:104E480097FE04B010BD00BF08B5FFF78FFE806C59
:104E580008BD00BF08B5FFF789FEC06CC3790233EF
:104E680000EB830008BD00BF08B5FEF71AFE08B5C1
:104E7800FFF7FAFF024B58221A604FF0FF307047D5
:104E880034030020024B58221A604FF0FF3070475D
:104E980034030020044A05491368002B08BF0B4659
:104EA800184410601846704738030020400300205B
:104EB800FEE700BFF8B500BFF8BC08BC9E467047C7
:0C4EC800F8B500BFF8BC08BC9E4670475F
:104ED400426C61636B50696C6C00000048656C6CDB
:104EE4006F20576F726C642066726F6D20746865F2
:104EF40020000000206F6E20555341525432200D83
:104F04000A0000002F686F6D652F6569636F6E2F4F
:104F14006A74616769742F436F72655F53544D33CC
:104F2400322F636F7265732F61726475696E6F2FB0
:104F3400486172647761726553657269616C2E634E
:104F44007070000078550008544F0008C04F0008E6
:104F54003134486172647761726553657269616C5A
:104F64000000000000000000484F00084F05000842
:104F7400750800081F0500083B050008EF04000839
:104F8400510A0008030500083B0B0008630B0008E6
:104F94000D0A0000C4540008A04F0008355072697F
:104FA4006E74000000000000984F00084F0C0008C9
:104FB400930A00088D0A0008910A00087855000831
:104FC400CC4F0008984F00083653747265616D0029
:104FD40000000000C04F00084F0C0008930A0008AE
:104FE4008D0A0008910A00084F0C00084F0C0008B5
:104FF4004F0C00083B0B0008630B00082F686F6D13
:10500400652F6569636F6E2F6A74616769742F43D6
:105014006F72655F53544D33322F636F7265732F14
:1050240061726475696E6F2F776972696E675F6408
:1050340069676974616C2E63000000002F686F6DEE
:10504400652F6569636F6E2F6A74616769742F4396
:105054006F72655F53544D33322F6C6962726172A3
:105064006965732F537263577261707065722F7321
:1050740072632F73746D33322F70696E6D61702E8D
:1050840063000000010000000200000004000000B2
:105094000800000010000000200000004000000094
:1050A4008000000000010000000200000004000075
:1050B4000008000000100000002000000040000074
:1050C4000080000000000000000000000102030452
:1050D4000607080900000000010203042F686F6D31
:1050E400652F6569636F6E2F6A74616769742F43F6
:1050F4006F72655F53544D33322F76617269616EFE
:1051040074732F53544D3332463478782F463431E8
:1051140031434555362F76617269616E745F46344A
:105124003131434555362E63707000000000000095
:105134000100000002000000030000000400000061
:105144000500000006000000070000001000000039
:105154001100000000000000010000000200000037
:105164000300000004000000050000000600000029
:105174000700000008000000090000000A00000009
:105184000B0000000C0000000D0000000E000000E9
:105194000F000000100000001100000012000000C9
:1051A40013000000140000001500000016000000A9
:1051B4001700000018000000190000001A00000089
:1051C4001C0000001D0000001E0000001F00000065
:1051D4002D0000002E0000002F00000050000000F1
:1051E4005100000000000000000000401281000097
:1051F40000010000000C00401282000001000000C9
:10520400000000401201010001010000000C0040F8
:10521400120201000200000000000040128101009F
:1052240002010000000C0040128201000202000092
:105234000040014012830000030000000000004011
:105244001201020003010000000C004012020200DF
:1052540003020000004001401203010005000000A9
:10526400000000401281000006000000000400401D
:1052740012820000070000000000014012811000AB
:1052840007010000000400401202010008000000B1
:1052940000000140128100000900000000000140EC
:1052A400120101000A000000000001401281010007
:1052B4000B00000000000140120102000F0000007A
:1052C40000000040128100001000000000000140B6
:1052D40012011100100100000004004012820100BC
:1052E40011000000000001401281110011010000B2
:1052F40000040040120202001300000000000040FD
:105304001201010014000000000400401282000099
:105314001500000000040040120201001600000005
:10532400000800401282000017000000000800403E
:10533400120201001800000000080040128201005F
:10534400180100000044014012830000190000000D
:105354000008004012020200190100000048014048
:10536400128300001A0000000000004012810100B6
:105374001D00000000000140128110001E0000000A
:1053840000000140120111001F0000000000014054
:1053940012811100FFFFFFFF000000000000000069
:1053A4000300000000440040120700000A0000004F
:1053B40000100140120700000C000000001401401E
:1053C4001208000013000000001001401207000042
:1053D400170000000010014012070000FFFFFFFF4C
:1053E4000000000000000000020000000044004033
:1053F400120700000900000000100140120700001D
:105404000B00000000140140120800000F0000000F
:1054140000100140120700001600000000100140B7
:1054240012070000FFFFFFFF000000000000000063
:105434002F686F6D652F6569636F6E2F6A7461677E
:1054440069742F436F72655F53544D33322F636F0A
:105454007265732F61726475696E6F2F486172642F
:105464007761726554696D65722E63707000000017
:1054740054494D3A20556E6B6E6F776E2074696D8A
:105484006572204952516E007855000898540008FE
:105494009C5500084E31305F5F63787861626976AD
:1054A4003131375F5F636C6173735F747970655F0B
:1054B400696E666F45000000000000008C5400080F
:1054C400093100081D3100086939000869390008EC
:1054D40087310008C93000086F31000831310008F5
:1054E400FB300008C4540008F8540008C4540008F1
:1054F400185500084E31305F5F63787861626976D1
:105504003131355F5F666F726365645F756E7769AD
:105514006E6445004E31305F5F637878616269760E
:105524003131395F5F666F726569676E5F65786395
:10553400657074696F6E4500785500084855000819
:105544008C5400084E31305F5F637878616269760D
:105554003132305F5F73695F636C6173735F747959
:1055640070655F696E666F45000000000000000012
:105574003C550008693800087D380008693900087E
:105584006939000887310008C93000083D3900082E
:10559400C938000891380008C4540008A45500080C
:1055A400537439747970655F696E666F000000002A
:1055B40000000000000000000000000000000000E7
:1055C40000000000000000000000000000000000D7
:1055D40000000000000000000000000000000000C7
:1055E40000000000000000000000000000000000B7
:1055F40000000000000000000000000000000000A7
:105604000000000000000000000000000000000096
:1056140008B10181B0B000840000000008B101812C
:10562400B0B000840000000008B10181B0B0008473
:105634000000000008B10181B0B000840000000047
:1056440008B10181B0B000840000000099DEFF7F42
:10565400B0B0AA00FFFF010C063C00004604540051
:105664005C04000081DEFF7FB0B0A800FFFF0100F2
:1056740075DEFF7FB0B0AA00FFFF010069DEFF7F87
:10568400AB08B100FFFF01091E480000B40104008B
:105694000000000051DEFF7FB0B0AA00FFFF010848
:1056A400200426003804000008B10181B0B0008451
:1056B4000000000008B10181B0B0008400000000C7
:1056C40008B10181B0B000840000000008B101817C
:1056D400B0B000840000000008B10181B0B00084C3
:1056E4000000000008B10181B0B000840000000097
:1056F40008B10181B0B000840000000008B101814C
:10570400B0B000840000000008B10181B0B0008492
:105714000000000008B10181B0B000840000000066
:1057240008B10181B0B000840000000008B101811B
:10573400B0B000840000000008B10181B0B0008462
:105744000000000008B10181B0B000840000000036
:0C57540008B10181B0B00084000000002A
:105760007CACFF7F01000000B8ACFF7FA8FEFF7F8C
:10577000CCACFF7FB0B0A88014ADFF7F010000006B
:10578000CEADFF7F00840280E0ADFF7FB0A8018036
:1057900014AEFF7F0084028080AEFF7F0100000016
:1057A00010B0FF7FB0B0AA8094B0FF7F010000006E
:1057B000C4B0FF7FB0AC0180BCB1FF7FB0B0A880A7
:1057C000E0B1FF7FB0AD028088B2FF7FB0B0A880AB
:1057D000AEB2FF7F01000000BAB2FF7FAB08B1801C
:1057E000D8B2FF7F3CFEFF7FDEB2FF7FB0B0AA8061
:1057F000F8B2FF7F38FEFF7F04B3FF7FA908B180B6
:1058000010B3FF7FB0B0A88032B3FF7FAB08B18088
:1058100052B3FF7FB0B0AC8082B3FF7F01000000C5
:1058200030B4FF7F14FEFF7F36B4FF7F18FEFF7F8A
:1058300042B4FF7F01000000F0BEFF7F14FEFF7F37
:1058400050BFFF7F00841480FCBFFF7F1CFEFF7FE2
:1058500008C0FF7F0100000074C0FF7F18FEFF7FBB
:10586000B4C0FF7F1CFEFF7F70C1FF7F2CFEFF7F57
:10587000A8C1FF7F38FEFF7FC0C1FF7F3CFEFF7FD6
:10588000CCC1FF7F40FEFF7FD8C1FF7F44FEFF7F7A
:10589000E4C1FF7F48FEFF7FF0C1FF7F4CFEFF7F2A
:1058A000FCC1FF7F50FEFF7F08C2FF7F54FEFF7FD9
:1058B00014C2FF7F58FEFF7F1CC2FF7FB0B0A880DC
:1058C00040C2FF7F54FEFF7F40C2FF7FA908B18026
:1058D00088C2FF7F50FEFF7F88C2FF7F54FEFF7F9C
:1058E00088C2FF7F58FEFF7FA0C2FF7F010000003B
:1058F000F4E8FF7FB0A9028088E9FF7FB0B0A880FC
:10590000D8E9FF7F01000000E0E9FF7FB0B0AA8086
:1059100014EAFF7FAE71B280D8EAFF7FAB3F3880D8
:1059200038EBFF7F0100000040EBFF7FB0B0AA80A2
:105930007CEBFF7F0100000020ECFF7FAA0DB2800E
:105940009CECFF7FB0AF08803CEFFF7F01000000C0
:105950004CEFFF7FAD3F0280C8F1FF7F01000000E8
:10596000F8F1FF7F008404800CF2FF7F010000004B
:1059700008F2FF7FB0AD0480ACF4FF7FB0A80380D5
:10598000D0F4FF7FC4FDFF7FD4F4FF7FC8FDFF7F0D
:08599000E0F4FF7F01000000BC
:10599800510C0008C10300088D0400087F0A0008A4
:0459A8009D03000853
:1059AC000000000000000240000402400008024019
:1059BC00000C024000100240001C02400024F400C5
:1059CC00010000001000000039380008AB3A000854
:1059DC003400002000000000D4550008F4550008E5
:1059EC00B45500080000000000000000000000009A
:1059FC00000000000000000000000000000000009B
:105A0C00000000000000000000000000000000008A
:105A1C00000000000000000000000000000000007A
:105A2C00000000000000000000000000000000006A
:045A3C000000000066
:040000050800049D4E
:00000001FF
